:020000040800F2
:10000000481400209D010008310600087D05000805
:100010001506000889020008010A00080000000017
:100020000000000000000000000000009D07000824
:10003000A502000800000000C106000869080008C9
:10004000B7010008B7010008B7010008B7010008B0
:10005000B7010008B7010008B7010008B7010008A0
:10006000B7010008B7010008B7010008B701000890
:10007000B7010008B7010008B7010008B701000880
:10008000B7010008B7010008B7010008B701000870
:10009000B7010008B7010008B7010008B701000860
:1000A000B7010008B7010008B7010008B701000850
:1000B000B7010008B7010008B7010008B701000840
:1000C000B7010008B7010008B7010008B701000830
:1000D000B7010008B7010008B7010008B701000820
:1000E000B7010008B7010008B7010008B701000810
:1000F000B7010008B7010008B7010008B701000800
:10010000B7010008B7010008B7010008B7010008EF
:10011000B7010008B7010008B7010008B7010008DF
:10012000B7010008B7010008B7010008B7010008CF
:10013000B7010008B7010008B7010008B7010008BF
:10014000B7010008B7010008B7010008B7010008AF
:10015000B7010008B7010008B7010008B70100089F
:10016000B7010008B7010008B7010008B70100088F
:10017000B7010008B7010008B7010008B70100087F
:10018000B7010008B7010008DFF80CD000F04AF80A
:1001900000480047A10D0008481400200648804789
:1001A00006480047FEE7FEE7FEE7FEE7FEE7FEE75C
:1001B000FEE7FEE7FEE7FEE76D080008890100089C
:1001C0002DE9F05F0546002092469B46884606468C
:1001D000814640241BE0284641464746224600F01F
:1001E00042F853465A46C01A914110D31146184658
:1001F000224600F029F82D1A67EB01084F462246E7
:100200000120002100F020F817EB00094E41201ECC
:10021000A4F10104DFDC484631462A464346BDE8E6
:10022000F09F0000064C074D06E0E06840F0010337
:1002300094E8070098471034AC42F6D3FFF7A8FFC4
:100240005C0F00087C0F0008202A04DB203A00FA2B
:1002500002F1002070479140C2F1200320FA03F31D
:10026000194390407047202A04DB203A21FA02F01B
:100270000021704721FA02F3D040C2F120029140E0
:10028000084319467047000001A000F0C7FBFBE7D8
:100290004275734661756C745F48616E646C65721B
:1002A0000A00000001A000F0B9BB000044656275BF
:1002B000674D6F6E5F48616E646C65720A00000086
:1002C000F0B5012187B0084600F006FA01211020A0
:1002D00000F00EFA012500248DF806408DF8075035
:1002E00002266802254F8DF8056000908DF80460A5
:1002F0006946384600F0F5F8A80200908DF80460D1
:100300006946384600F0EDF807220A21384600F029
:1003100024F907220921384600F01FF94FF4E13093
:10032000ADF80C400290ADF80E40ADF81040ADF8BD
:1003300014400C20124CADF8120002A9204600F027
:1003400005FB4FF4A06000F0B1F925208DF81800EE
:100350008DF819508DF81A508DF81B5006A800F032
:1003600073F9012240F22551204600F0D6FA01210E
:10037000204600F0C1FA07B0F0BD000000000240C6
:100380000010014010B5044600F08AF8F32000F098
:1003900009F80221204600F00BF8BDE8104000F0FB
:1003A0005BB8000001490860704700000C3C024047
:1003B00070B50646002529B1012927D0022928D089
:1003C0004FF4407500F07EF809281ED1124C2068C9
:1003D00020F440702060206828432060206820F0CE
:1003E000F8002060206846F0020108432060206881
:1003F00040F48030206000F065F8216821F00201AF
:100400002160216821F0F801216070BD4FF48075F2
:10041000D8E74FF40075D5E7103C02400D4909209C
:100420000A68D20301D5012070470A68D20601D5B7
:10043000062070470A68D20501D5022070470A6875
:1004400012F0E00F01D00720704709688907FBD53B
:10045000082070470C3C02400248016841F000410E
:1004600001607047103C024070B50D46064600F032
:1004700029F8092811D1094C206820F44070206027
:1004800020682060206840F001002060357000F096
:1004900019F8216821F00101216070BD103C024073
:1004A00005480068002805DA034804490C38016053
:1004B0000349016070470000103C0240230167457A
:1004C000AB89EFCD08B509208DF80000FFF7A6FF36
:1004D0008DF800009DF800000128F7D09DF800007D
:1004E00008BDF0B5002201274FF0030C0B6807FA96
:1004F00002F52B40AB422CD1066853000CFA03F4F2
:10050000A64306600E79D0F800E09E4046EA0E064B
:1005100006600E79012E01D0022E12D18668A64304
:1005200086604E79D0F808E09E4046EA0E06866066
:100530004668AE43466045688E799640B6B235430C
:100540004560C568A543C560CC799C40C3681C4321
:10055000C460521C102AC9D3F0BD4B07DB0E9A4071
:10056000C90810B500EB8100016A0F249C40A1432B
:100570000162016A1143016210BD000001A000F098
:100580004DFAFBE7486172644661756C745F4861BF
:100590006E646C65720A000007490868074A1040DB
:1005A000B0F1005F07D14868054A506010600968E3
:1005B00081F3088800477047000004080000FE2F00
:1005C0001C000020704770472DE9F0411D4616467B
:1005D0000F4B024603EB021700203A78044642B163
:1005E000012A08D110E011F8010B30550120641CDC
:1005F000A4B2AC42F7D3BDE8F081B8682044FFF75D
:10060000E1FF3055641CA4B2AC42F6D30120F2E7FE
:100610004C0F000801A000F001FAFBE74D656D4D9D
:10062000616E6167655F48616E646C65720A0000A7
:1006300001A000F0F3B900004E4D495F48616E64BF
:100640006C65720A0000000030B50F23C278017893
:100650000125FAB1144A126801F1E02102F4E062C6
:10066000C2F5E062C2F30722C2F10404D34042782B
:10067000A24084781C401443220181F800240078B1
:1006800000F01F018D404009800000F1E020C0F81B
:10069000005130BD01F01F0085404809800000F185
:1006A000E020C0F8805130BD0CED00E00249084365
:1006B00002490860704700000000FA050CED00E0F8
:1006C00001A000F0ABB9000050656E6453565F485E
:1006D000616E646C65720A00044A0029116801D0D9
:1006E000014300E081431160704700003038024050
:1006F000044A0029116801D0014300E081431160E0
:10070000704700004438024070B5204B1968204CF7
:1007100011F00C0104D01F4E042903D0082903D086
:1007200004601BE0066019E0184A121F1168C1F34B
:100730008055116801F03F0115B1B6FBF1F101E000
:10074000B4FBF1F114681268C4F388146143C2F376
:100750000142521C5200B1FBF2F1016019680F22F4
:1007600002EA11110C4A545C0168E14041601C68C6
:10077000072505EA9424145D21FA04F484601B68BB
:1007800005EA5333D25CD140C16070BD08380240E5
:100790000024F40040787D010000002001A000F05A
:1007A0003DB900005356435F48616E646C65720A40
:1007B000000000000CB50022274900920192086851
:1007C00040F4803008604FF4A043086800F4003023
:1007D00001900098401C0090019810B90098984230
:1007E000F3D10868800334D5012001901A484030C5
:1007F000026842F0805202601848026842F44042A7
:1008000002601548083002680260026842F4004243
:100810000260026842F4A0520260031F104A1A608C
:100820000A6842F080720A600A689201FCD50D499C
:1008300040F205720A60016821F00301016001685D
:1008400041F0020101600168C1F381010229FAD17E
:100850000CBD01920CBD0000003802400070004049
:1008600019544007003C024000F02EB8124810B561
:10087000016841F4700101601048016841F0010114
:1008800001600E4A00210832116002680C4B1A40C8
:100890000260031D0B4A1A60026822F48022026083
:1008A00006480C300160FFF785FF03494FF00060F8
:1008B0008039086010BD000088ED00E0003802407B
:1008C000FFFFF6FE103000240A49886810B18868DE
:1008D000401E88600878401CC0B20870642807D3A6
:1008E00000220A704868401C4860401C00D14A60E1
:1008F00070470000100000200029818902D041F4D7
:10090000005101E021F4005181817047024600202E
:1009100012880A4200D00120704710B5C1F342137B
:1009200001F01F040121A140012B07D0022B07D0A9
:100930001430002A026805D00A4304E00C30F8E7BE
:100940001030F6E78A43026010BD00007FB5044610
:10095000008A0D46C98820F4405001432182A089B5
:1009600041F20C618843A9882A8911436A890243AC
:100970001143A181A08A20F44071A8890843A08274
:100980006846FFF7C1FE1A48844202D019488442E3
:1009900001D1039800E00298A189090400EBC0018D
:1009A00001EB0010296801D5490000E08900B0FB87
:1009B000F1F06422B0FBF2F109010B096FF01805A8
:1009C0006B4300EB8300A3891D044FF0320306D56F
:1009D00003EBC000B0FBF2F000F0070005E003EB12
:1009E0000010B0FBF2F000F00F00084320817FBD43
:1009F0000010014000140140C1F3080181807047DC
:100A000001A000F00BF8FBE755736167654661755F
:100A10006C745F48616E646C65720A000FB4054BBC
:100A200010B503A9044A029800F018F810BC5DF84C
:100A300014FB0000790D00082800002002E008C81F
:100A4000121F08C1002AFAD170477047002001E048
:100A500001C1121F002AFBD1704700002DE9FF4F92
:100A60008DB09B460F460446002606E025280BD095
:100A70005A460F999047641C761C20780028F5D1BF
:100A800011B03046BDE8F08F0025A84601229849F4
:100A900000E0054314F8013F203B02FA03F008424E
:100AA000F7D120782E2817D114F8010F45F004054E
:100AB0002A280ED06FF02F022078A0F130010929EA
:100AC0000AD808EB880102EB410100EB0108641C25
:100AD000F2E757F8048B641C20786C280DD004DCF6
:100AE0004C2812D06A2811D104E074280DD07A283D
:100AF0000CD10AE045F4001507E0617845F4801553
:100B0000814202D1641C05F58015641C2278692A93
:100B100045D008DC002AB3D0582A69D0632A10D007
:100B2000642A08D13BE0702A67D0732A13D0752A53
:100B30005CD0782A5CD010465A460F999047761CB4
:100B4000D3E017F8040B8DF8000000208DF80100A9
:100B5000E946012003E057F8049B4FF0FF30690796
:100B60004FF0000501D40AE06D1C45450DDA8542C1
:100B7000FADB19F805100029F6D106E06D1C854254
:100B8000FCDB19F805100029F8D12E4404E019F80F
:100B9000010B5A460F9990476D1EF8D2A5E00A2026
:100BA0000021CDE90801C5F3025002280DD001CF84
:100BB000C117031E71F100030DDA4FF0000CD0EBEA
:100BC0000C006CEB01012D2308E0FF1D27F0070747
:100BD000F7E80201EDE72B0504D52B238DF828302B
:100BE00001233BE0EB0739D02023F7E70A2000E0A0
:100BF00010200021CDE9080107E01020002145F078
:100C00000405CDE908014FF00808C5F30250022899
:100C10000FD001CF00214FF0000A2B071FD5702AFB
:100C20000DD0DDE908C38CF0100C5CEA030C0CD08D
:100C300015E0FF1D27F00707F7E80201EBE7402268
:100C40008DF828204FF0010A0BE050EA010306D08E
:100C500030238DF828308DF8292002239A46582A0F
:100C600004D024A20DF120090B9209E026A2F9E795
:100C7000DDE90823FFF7A4FA0B9B9B5C09F8013D13
:100C800050EA0102F4D1ADEB09002030089068076A
:100C900001D44FF001080899884502DDA8EB010056
:100CA00000E000208046002506E00AA85A46405D84
:100CB0000F9990476D1C761C5545F6DB04E03020FB
:100CC0005A460F999047761CB8F10001A8F1010827
:100CD000F5DC05E019F8010B5A460F999047761C90
:100CE0000899481E08900029F4DC641CC5E6000041
:100CF00009280100303132333435363738396162F2
:100D000063646566000000003031323334353637B5
:100D1000383941424344454600000000F0B5134BCA
:100D2000DFF84CC01C789CB901241C70114F0024C2
:100D300023460025DE0702D087EA530300E05B0864
:100D40006D1C082DF6D34CF82430641CFF2CEFD911
:100D5000002307E0CC5C4440E4B25B1C5CF8244018
:100D600084EA10209342F5D3C043F0BD2400002054
:100D7000440000202083B8ED70B5084E0546C1B28E
:100D80006FF07F443046FFF737FE80213046FFF793
:100D9000BDFD08B9641EF8D1284670BD00100140A1
:100DA00008B56FF07F40401EFDD2FFF789FAFFF7CC
:100DB0000AFC3FA0FFF732FE1823424A42490020B6
:100DC000FFF702FC3F4E012806D130690090311D2B
:100DD0003EA00EC9FFF722FE331D14240021084651
:100DE0001A5C401C514080B2A042F9D3C84331681C
:100DF000C0B2884259D1F2687168881810F8043D71
:100E00001B063361447843EA04433361847843EA40
:100E100004233361C078121F184330614FF0FF3054
:100E2000FFF77CFF04462DA03169FFF7F7FD21464F
:100E300032A0FFF7F3FD3069A0422DD13020FFF73B
:100E4000A1FA3820FFF79EFA4020FFF79BFA002412
:100E5000304F0DE070680578FFF722FB2946E01956
:100E6000FFF702FBFFF7F8FA7068401C641C706023
:100E7000F068001FA042EDD81020FFF783FA482049
:100E8000FFF780FA5020FFF77DFA5820FFF77AFA33
:100E900021A0FFF7C3FD05E022A0FFF7BFFD102052
:100EA000FFF770FAFFF778FB96E722A0F1E7000062
:100EB0000AD4CBD0D0626F6F746C6F616465722E90
:100EC0002E2E0A002C000020008000080A25782C15
:100ED00025782C25642C25780A0000000A53655FCC
:100EE000685F557064617461496E666F2E43686512
:100EF000636B53756D203D2025780A000A4C655FB1
:100F000064775F436865636B53756D203D2025787A
:100F10000A000000000004080AC9FDBCB6CDEAB30F
:100F2000C90A00000A6372633332D0A3D1E94E4F7D
:100F30004B0A00000AC9FDBCB6D0C5CFA2C7F8CA8B
:100F4000FDBEDDD0A3D1E94E4F4B0A0000000000EA
:100F50000080000800800008000000007C0F0008EE
:100F6000000000202C0000003C0A0008A80F000828
:100F70002C0000201C1400004C0A00080000000097
:100F8000010203040102030406070809000000002F
:100F90000000000000000000000000000000000051
:080FA000000000000000000049
:020000040804EE
:10000000B0EC012055020408E9480408E135040871
:1000100065480408CD1D0408AD7204080000000006
:100020000000000000000000000000009D01040826
:100030003D25040800000000F10104083D600408AB
:100040006F0204086F0204086F0204086F020408BC
:100050006F0204086F0204086F0204086F020408AC
:100060006D3004086F0204086F0204086F02040870
:100070006F0204086F02040865220408992204082C
:100080006F0204086F0204086F0204086F0204087C
:100090006F0204086F0204086F0204086F0204086C
:1000A0006F0204086F0204086F0204086F0204085C
:1000B0006F0204086F0204086F0204086F0204084C
:1000C0006F0204086F0204086F0204086F0204083C
:1000D0006F0204086F0204086F020408D96A04085A
:1000E0006F0204086F0204086F0204086F0204081C
:1000F0006F0204086F0204086F0204086F0204080C
:100100006F0204086F0204086F0204086F020408FB
:100110003D690408E96904086F0204086F020408D5
:100120006F0204086F0204086F0204086F020408DB
:100130006F0204088D2904086F0204086F02040886
:100140006F0204086F0204086F0204086F020408BB
:100150006F0204086F0204086F0204086F020408AB
:100160006F0204086F0204086F0204086F0204089B
:100170006F0204086F0204086F0204086F0204088B
:100180006F0204086F020408DFF80CD001F0FCF8DD
:100190000048004741D10408B0EC01202A4B1968FF
:1001A0000868B0E8F04F80F30988BFF36F8F4FF015
:1001B000000080F3118870470000000006480068C6
:1001C000006880F3088862B661B6BFF34F8FBFF353
:1001D0006F8F00DF00BF00BF08ED00E0DFF80C000C
:1001E000016841F470010160704700BF88ED00E0D4
:1001F000EFF30980BFF36F8F134B1A681EF0100FD7
:1002000008BF20ED108A20E9F04F106008B44FF0CD
:10021000100080F31188BFF34F8FBFF36F8F14F07E
:10022000D5FA4FF0000080F3118808BC19680868FF
:10023000B0E8F04F1EF0100F08BFB0EC108A80F34A
:100240000988BFF36F8F704788000010EFF30580B7
:10025000704700000648804706480047FEE7FEE773
:10026000FEE7FEE7FEE7FEE7FEE7FEE7FEE7FEE766
:1002700069600408890104082DE9F05F0546002043
:1002800092469B4688460646814640241BE0284607
:1002900041464746224600F050FD53465A46C01A92
:1002A000914110D311461846224600F037FD2D1A11
:1002B00067EB01084F4622460120002100F02EFD89
:1002C00017EB00094E41201EA4F10104DFDC484673
:1002D00031462A464346BDE8F09FA0F14101192965
:1002E00000D820307047000038B5D0E90221491EFF
:1002F00001EB410102EBC1014268C1EB011102EBCC
:1003000081010268C1EB011102EB8102D0E90431E5
:1003100001EB410103EB81013023A1F5527191FB07
:10032000F3F4174D6C4302EBC41291FBF3F403FB9F
:10033000141100921A2902DB124B1A4400920C226B
:1003400091FBF2F3104C6343009C04EBC313009346
:1003500091FBF2F302FB13110C4A08E0491E40F234
:10036000A324535C6343009C04EBC3130093002954
:10037000F4DC0146684600F0F7FC009838BD000048
:100380003F0C0F008051010067C203002C56050886
:1003900070B5054601B90721541A241DB4F5B67F7E
:1003A00009DD286800F036F9A04204DC2868401C0A
:1003B0002860012070BD002C05DA2868401E2860E6
:1003C00000F028F90444072094FBF0F0401C70BDB5
:1003D0002DE9F04F89B01D468A468046002401AFC2
:1003E0004FF0070B0192079057F8241011F8010BFA
:1003F00047F8241048B125280DD0BAF1010F06D9CD
:1004000008F8010BAAF1010A5CE0641E5AE0002022
:1004100009B0BDE8F08F11F8010B47F8241000284F
:10042000F3D002264FF030095A284BD020DC4D285B
:1004300073D014DC442871D008DC2528DDD0412895
:100440002AD042282ED043283CD130E0462847D03D
:10045000472857D0482862D0492833D161E0523824
:1004600008282FD2DFE800F0787AA6838A97A6A81A
:100470006138192826D2DFE800F00D1318202E2548
:100480003513255C252560642566256D2573752546
:100490008B9BA0006AA000E070A0A9690091B4E065
:1004A0007DA000E088482969F8E788A007E069692D
:1004B000642091FBF0F0133082E0E86880E0641C77
:1004C00047F82400002C8FDA002088F800000799F4
:1004D000A8EB01009CE7E8684FF02009009070E06D
:1004E0007EA0ECE7686900F26C700090D5E9061216
:1004F0006846FFF74DFF0099642091FBF0F200FB86
:1005000012105DE06869042600F26C700090D5E975
:1005100006126846FFF73CFF53E010E048E0A86889
:100520004EE0A8680C21173090FBF1F201FB12009D
:1005300001E0E8690326401C42E02869FBE768689F
:100540003EE069A0BBE7A8680C2801DA67A0B6E71F
:1005500067A0B4E767A0B2E769A0B0E728682FE01A
:1005600069A0ACE7A869012608BB072028E0D5E907
:100570000610401AC01D90FBFBF021E0686900F2F4
:100580006C700090D5E906126846FFF701FF17E08E
:100590000126A86914E0A9695846891D91FBF0F26B
:1005A0000BFB1211EA69511AC91D91FBFBF007E020
:1005B00056A084E758A082E70426686900F26C70B0
:1005C000009000218DF8181006A80A2113E0009A67
:1005D00092FBF1F301FB1322303200F8012D009A57
:1005E00092FBF1F2009232B901E000F8019D321E57
:1005F000A6F10106F9DC321EA6F10106E7DC5EE792
:1006000010F8011B0029FBD100994A1E0092002915
:10061000F6DC54E781070CD1642190FBF1F201FB79
:10062000120151B94FF4C87190FBF1F201FB1200B5
:1006300018B1002000F26D1070470120FAE70000A9
:1006400053756E004D6F6E005475650057656400FC
:1006500054687500467269005361740053756E6486
:100660006179004D6F6E64617900547565736461E2
:1006700079005765646E65736461790054687572BA
:1006800073646179004672696461790053617475BD
:1006900072646179000000004A616E004665620084
:1006A0004D617200417072004D6179004A756E00B3
:1006B0004A756C0041756700536570004F637400A4
:1006C0004E6F760044656300385605082561202585
:1006D00062202565202554202559000025592D2507
:1006E0006D2D2564000000000A000000414D00004F
:1006F000504D000025493A254D3A255320257000DC
:1007000025483A254D00000009000000256D2F25E1
:10071000642F25790000000025483A254D3A2553DD
:100720000000000010B5431A934209D283188818BC
:1007300003E010F8011D03F8011D521EF9D210BD8F
:1007400040EA01039B0703D009E008C9121F08C053
:10075000042AFAD203E011F8013B00F8013B521ED3
:10076000F9D210BDD2B201E000F8012B491EFBD234
:1007700070470022F6E710B513460A4604461946AC
:10078000FFF7F0FF204610BD421E12F8013F002B7C
:10079000FBD111F8013B02F8013B002BF9D1704766
:1007A00030B505462A460B4612F8010B13F8014BEB
:1007B00008B1A042F8D01CB1002802D06D1CF1E7AE
:1007C000284630BD10B5044604E00B7800F8013B24
:1007D00003B1491C521EF8D2204610BDCAB2401EB9
:1007E00010F8011F8A4202D00029F9D10020704779
:1007F000421C10F8011B0029FBD1801A704710B56C
:10080000002200E0521C835C8C5CA34201D1002BCF
:10081000F8D1D8B2E1B2401A10BD30B5044600207C
:10082000034600E05B1C934203D2E05CCD5C401BBE
:10083000F8D030BD034611F8012B00F8012B002A37
:10084000F9D11846704730B505460020034600E050
:100850005B1C934205D2EC5CC85C201A01D1002CD1
:10086000F6D130BD0FB400B58DB010A909900B9032
:1008700000914FF0FF300A9000200C900548069040
:10088000054807906A4609A80F9900F0C7FA0DB00D
:100890005DF814FB390E0408570E04082DE9FF4FCC
:1008A000087881B09946FF2805D0491C2D2804D02E
:1008B0000024002308E000230BE00124F9E703EB08
:1008C000830300EB4303491C0878FF28F7D104B1E8
:1008D0005B4200200090147801462D2C01D02B2C77
:1008E00004D1521C2D2C12D000240094002516781F
:1008F000FF2E0ED00A24A0FB04C801FB04810027B0
:1009000000FB0711521C16EB0C006941EFE70124B4
:10091000EBE7994450EA01020ED00024AA4D264686
:10092000DFF8A88200F070F982468B46B9F100002A
:1009300009DAC9F100071BE001980021C0E90011A4
:1009400005B0BDE8F08F074612E0F80707D0224651
:100950002B463046414600F019FC064688462246A2
:100960002B461046194600F011FC04460D467F1038
:10097000002FEAD1B9F1000F32464346504659469E
:1009800002DA00F075FC01E000F000FC009A0AB108
:1009900081F00041019AC2E90001D1E72DE9FF4F42
:1009A0001F468DB0D7E901464FF0FF382E2045464F
:1009B0004FF000090B90B9696D1C0E988847396A91
:1009C000824688470028F6D1BAF1FF3F0AD024F4C6
:1009D000D064002E11DDBAF12B0F08D0BAF12D0F23
:1009E0000BD102E0404611B0ABE744F48064B96932
:1009F0006D1C0E9888478246761E6946600501D5B3
:100A00002D2000E02B208DF8000001F1010B0DF1ED
:100A1000200809E0B9696D1C0E98884782460F9836
:100A200044F40074761E0560002E02DDBAF1300F2A
:100A3000F0D00B998A453ED144F0800406E00F992E
:100A4000681CA9F1010944F400740860B9696D1CBF
:100A5000761E0E98884782463028F0D02BE00B99FE
:100A60008A4505D1200603D444F08004761E18E0A0
:100A7000504606F0CFFE08B30DF11301761E44F484
:100A800000748B4508D2AAF130000BF8010B200648
:100A900007D5A9F1010003E0200602D409F1010005
:100AA0008146A00502D50F99681C0860B9696D1CC4
:100AB0000E9888478246002ED1DC53E0002E51DD8F
:100AC000BAF1650F02D0BAF1450F4BD1A00549D557
:100AD000B9696D1C24F44074761E0E9888478246CE
:100AE000002E0CDD2B2804D0BAF12D0F07D144F4D1
:100AF0008074B9696D1C0E9888478246761EE005A1
:100B000001D52D2100E02B2108F8011BCDF82C8008
:100B100021E00DF12901761E44F4007488450CD2C1
:100B2000AAF1300010F0FF0088F8000002D10B9904
:100B3000884509D908F1010806E0E00501D52448F7
:100B400001E042F20F708146B9696D1C0E9888472A
:100B500082460F980560002E04DD504606F05AFECE
:100B60000028D6D1F9690E988847FF208BF800003D
:100B700088F800000020069007904B466A4608A9B6
:100B800006A8FFF78BFEA00502D46FF001002AE74C
:100B900014F0240F0AD0E00714D1DDE906123868FA
:100BA000031D3B600068C0E900120BE0DDE90601AF
:100BB00000F0CDFB0146E00704D13868021D3A6021
:100BC0000068016028460EE7000024400000F03F66
:100BD000F1D8FFFF70B5064606F0DAFC046805465A
:100BE0000A220021304600F095F92C6070BD0EB548
:100BF00040F2334102910021CDE900110A460B4633
:100C000000F0CFF903B000BD0EB540F233420292BE
:100C10000022CDE90022134600F0C3F903B000BD65
:100C200070B5C1F30A5201F000450024C1F313016D
:100C300040F2FF3341F480119A4201DA002070BD86
:100C400040F233439A42A2F2334203DC524200F0B4
:100C500074F800E090402C43F1D0404270BDC1F3E5
:100C60000A52C1F3130140F2FF3341F480119A425A
:100C700002DA00200146704740F233439A42A2F262
:100C8000334202DC524200F058B800F047B800008E
:100C900030B5041E71F1000404DB4FF00044404203
:100CA00064EB0101141E73F1000405DB1C464FF0D8
:100CB0000043524263EB04038B4208BF824230BDC3
:100CC00030B5041E71F1000404DB4FF000444042D3
:100CD00064EB0101141E73F1000405DB1C464FF0A8
:100CE0000043524263EB0403994208BF904230BD77
:100CF00030B50B46014600202022012409E021FAEC
:100D000002F59D4205D303FA02F5491B04FA02F5E8
:100D10002844151EA2F10102F1DC30BD202A04DBBB
:100D2000203A00FA02F1002070479140C2F12003FE
:100D300020FA03F3194390407047202A04DB203A3D
:100D400021FA02F00021704721FA02F3D040C2F1EB
:100D5000200291400843194670470000014900F005
:100D600003B80000ACC6001010B500683C22B0FB10
:100D7000F2F302FB1303B0FBF2F00B60B0FBF2F3F3
:100D800002FB1303B0FBF2F018224B60B0FBF2F34E
:100D900002FB1303B0FBF2F0021D8B600723B2FBD2
:100DA000F3F403FB1422800040F2B55300F66C30DC
:100DB0008A61B0FBF3F2B0FBF3F403FB140044329E
:100DC00080084A61C8613B2802D3920700D0401CCA
:100DD0000022074C13460A61E25C824203D8801A63
:100DE0005B1C0B61F8E7401CC860084610BD0000A2
:100DF0008E5605083A2800D2303820F02002412AC9
:100E000001D3A2F13700884201D34FF0FF30704781
:100E1000026811441378016018467047D160044994
:100E200051610449116200211161114600F0DEBADE
:100E3000110E0408D9130408426842B1016811F880
:100E4000013B23B1521EC0E9001218467047012130
:100E5000C160881E704742685AB1C368016843B9CF
:100E600083688B4205D0491E521CC0E90012002045
:100E700070474FF0FF3070470FB4002300B589B0C2
:100E80000CA900910B996FF00042CB601E4B0693AA
:100E90001E4B07930423CDE901321D4A08920246F6
:100EA0006B460020FFF77AFD09B05DF814FB70B5C2
:100EB00086B006464FF0FF300091CDE901010020D9
:100EC00015460C4604903246694604A8FFF7D4FF45
:100ED00002460498211825B108B1084600E02046D2
:100EE0002860049800280DD0002A02DD009888426E
:100EF00008D0081B0094CDE901043246694604A8D5
:100F0000FFF7BAFF06B070BD390E0408570E04088B
:100F1000D91304082DE9F04791460F468046044650
:100F2000002614F8015B2DB100F052FA0068405D14
:100F3000C007F6D12B2D02D02D2D18D0641E4A46A5
:100F40003946204600F0E8FB27B13968A14201D1BB
:100F5000C7F8008071054FF002040BD5404200280D
:100F600003DD06F015FB0460A007BDE8F08746F43A
:100F70008066E4E70028F8DA06F00AFB04606FF008
:100F80000040F2E710B5141E73F1000408DA401CAB
:100F900041F1000192185B411A4301D120F0010098
:100FA00010BD2DE9F04D92469B4611B1B1FA81F288
:100FB00002E0B0FA80F220329046FFF7AFFE04461E
:100FC0000F4640EA0A0041EA0B0153465A460843DD
:100FD00013D0114653EA010019D0C8F1400250461F
:100FE000FFF7ABFE05460E46504659464246FFF710
:100FF00095FE084305D0012004E020463946BDE8AF
:10100000F08D0020054346EAE0762C4337430A98EA
:101010006305E40AA0EB08000022FD0A44EA4754F5
:101020000A3002D500200146E9E70105101969419F
:10103000DDE9084500196941BDE8F04DA2E72DE959
:10104000FE4F804681EA0300C00F0C46009021F05D
:10105000004123F00045B8EB0200A94105D240460B
:10106000214690461C460B46024623F000401043A2
:1010700047D0270DC7F30A00C3F30A510290401A64
:10108000019040286BDAC3F3130040F4801B0098F2
:10109000924620B10023D2EB030A63EB0B0B0198BD
:1010A0005946C0F140025046FFF738FE06460D464D
:1010B00050465946019A00F079F910EB0800614159
:1010C000002487EA115284EAE7731A4340D0009A59
:1010D00062B3019A012A4FEA075215DC001B61EB4B
:1010E00002014FF0004202EA0752CDE90042001C23
:1010F00041F5801132462B46FFF753FF03B0BDE8A0
:10110000F08F40462146F9E7001B61EB0201001C0D
:1011100041F5801300185B412018A2F5001747EB3A
:10112000030140EAD570B6196D4111E06D084FEA30
:10113000360645EAC0754FEA0752001B61EB020113
:10114000001C41F5801149084FEA30000019514157
:1011500032462B4603B0BDE8F04FFFF713BF0098AF
:10116000012240000023D0EB020263EBE073009801
:1011700021464FEAE074B8EB000061EB0401E9E7B7
:1011800083F000435BE781F0004158E72DE9FE4F13
:1011900081EA030404F0004421F0004100944FF080
:1011A000000B23F0004350EA01045ED052EA03042E
:1011B0005BD0C3F30A54C1F30A552C44A4F2F334B0
:1011C0000194A0FB0254C1F3130141F48011C3F355
:1011D000130343F4801301FB024400FB034E840A13
:1011E000970A44EA815447EA8357A4FB07680295AB
:1011F0008D0A05FB07854FEA932C04FB0C54270549
:10120000029D4FEA065847EA1637B5EB08056EEB24
:10121000070C870E920E47EA811742EA8312A7FB5A
:101220000201B6EB0B0164EB00042B0D43EA0C3317
:101230005E1844EB1C50DA465146E7FB0201C5F349
:1012400013044FEA0B3343EA14534FEA0432019C70
:1012500043EA0603A4F10C040294009CCDE900B417
:10126000FFF79FFE03B0BDE8F08F00200146F9E7CD
:101270002DE9F04D81EA030404F0004B21F0004514
:1012800014464FF0000A23F0004150EA050220D036
:1012900054EA01021DD0C5F30A570246C5F31303F1
:1012A000C1F31300C1F30A5640F4801543F48013D0
:1012B000A7EB0608101BD64608F2FD3873EB0500B5
:1012C00002D308F1010801E092185B41B8F1000F68
:1012D00003DA00200146BDE8F08D00204FF48011B4
:1012E000064684460EE0171B73EB050705D3121B59
:1012F00063EB050306434CEA010C49084FEA300052
:1013000092185B4150EA0107EDD152EA030012D076
:1013100082EA040083EA0501084305D0101BAB41B3
:1013200006D20122002306E000224FF0004302E033
:101330006FF0010253101AEB06004CEB085110EB52
:101340000A0041EB0B01BDE8F04DFFF71BBE01F0B9
:10135000004330B421F0004150EA010206D00A0DEA
:10136000A2F56072C1F31301002A02DC30BC002038
:101370007047440F44EAC104C100E01830BC00EBE0
:10138000C25000F018BA0000064C074D06E0E068B5
:1013900040F0010394E8070098471034AC42F6D3BC
:1013A000FEF7F6FEF857050838580508202A06DB30
:1013B000CB17203A41FA02F043EAE07306E041FA23
:1013C00002F3D040C2F12002914008431946704711
:1013D000004870471C57050810B50446FFF7F8FF92
:1013E0000068005D00F0010010BD00002DE9F34F22
:1013F0008BB04FF0000801F10C000C464FF0010BD0
:1014000046460DF1080A0190626901210198904752
:10141000051E2DD0252D2CD0216A8847C0B16269C8
:10142000012101989047216A88470028F7D1411E81
:1014300062690198904700E0761CA1690B98884783
:10144000216A88470028F7D1E1690B988847DBE7D4
:10145000A1690B9888470746A84201D1761CD3E7BB
:10146000E1690B9888477F1C02D1B8F1000F6FD05B
:1014700046E1002762693D463946019890472A288F
:1014800004D162690121019890470125DFF8849217
:101490006269012101989047A0F130010A290AD21E
:1014A0004F45E5DC07EB870100EB4107303FDFD418
:1014B00045F01005ECE7E90601D46FF000476C2811
:1014C0000AD04C2814D0682815D06A280DD074286A
:1014D0001CD07A281AD01DE062690121019890473A
:1014E0006C2802D045F0040514E045F002050DE03B
:1014F00045F020050AE062690121019890476828BB
:1015000002D045F0080505E045F400656269012157
:1015100001989047C4E9015765283DD019DC582847
:101520007AD00CDC452837D004DC252826D0412889
:1015300031D131E046282FD047282CD12CE05B2830
:1015400077D0612828D063287CD0642823D15AE042
:10155000D0E06F2848D008DC66281DD067281BD053
:10156000692821D06E2816D127E0702845D073282D
:1015700068D0752847D078280DD14DE0A1690B9827
:101580008847054625283FF469AFE1690B988847ED
:101590006D1C3FF46AAFB3E023466A466FF001006A
:1015A0000B99FFF7FBF99EE045F040006060A8074B
:1015B00023464FF0000236D43EE0E8077FF447AF01
:1015C0002068011D21600068290501D506701BE710
:1015D000290701D5068017E7A90703D5F117C0E948
:1015E000006111E706600FE745F040006060A80762
:1015F00023464FF0080216D41EE040F60E0125EAFD
:101600000100606016E045F040006060A8072346D6
:101610004FF00A0207D40FE045F040006060A807D1
:1016200008D5234610226FF001000B99AFF300801C
:1016300059E007E0234610226FF001000B99AFF349
:10164000008050E04FF000094F464B46632802D01F
:101650005B2806D040E0E80601D40120A060012705
:101660003AE062690121019890475E2805D14FF068
:1016700001096269494601989047216939B90021F9
:101680000A46534643F82120491C0829FADBB0B327
:10169000216969B9C11700EBD16253110AEB8301CB
:1016A00022F01F02821A01200B68904003430B6056
:1016B00062690121019890475D28E8D1B9F1000FD6
:1016C00009D00020514651F82020D24341F8202073
:1016D000401C0828F7DB02AB224600976FF00100A0
:1016E0000B99AFF3008000280CDA401C08D1BBF145
:1016F000000F05D04FF0FF300DB0BDE8F08FFFE7D1
:101700004046F9E7E90701D108F1010806444FF026
:10171000000B79E6CCCCCC0C2DE9F05F824600784A
:10172000002715468B460AF10104B946302801D03E
:101730009DB113E014F8010B0127782803D0582835
:1017400001D045B10AE00DB1102D07D100271025B9
:1017500014F8010B02E0082500E00A250026B04637
:101760000EE005FB080005FB06F1012701EB104622
:101770001FFA80F8B6F5803F00D3B94614F8010B84
:101780002946FFF737FB0028EBDABBF1000F05D045
:101790000FB1641E00E05446CBF80040B9F1000FD1
:1017A00006D005F0F5FE02210160C81EBDE8F09FDD
:1017B00048EA0640FAE70029A8BF7047401C4900E4
:1017C00008BF20F00100704710B4B0FA80FC00FAA6
:1017D0000CF050EA010404BF10BC704749B1CCF1D1
:1017E000200421FA04F411FA0CF118BF012121435D
:1017F0000843A3EB0C01CB1D4FEA00614FEA102018
:1018000042BF002010BC704700EBC35010440029B9
:10181000A4BF10BC7047401C490008BF20F0010065
:1018200010BC704770B58C1810F8015B15F00703F9
:1018300001D110F8013B2A1106D110F8012B03E069
:1018400010F8016B01F8016B5B1EF9D12B0705D471
:101850000023521E0DD401F8013BFAE710F8013BBA
:10186000CB1A921C03E013F8015B01F8015B521ED6
:10187000F9D5A142D8D3002070BD0029816802D0DB
:1018800041F0010101E021F0010181607047000099
:10189000084B10B5D3F8042307490A40D0E90014D7
:1018A0002143D0E90240044321431143C3F8041308
:1018B00010BD000000200140E030FCFF00298168DD
:1018C00002D041F4807101E021F4807181607047A1
:1018D0000029816802D041F4007101E021F4007117
:1018E0008160704730B542680F4B0C791A400B6825
:1018F00042EA04221343436082680C4B4D791A403C
:10190000D1E9034323438C6844EA4504234313434A
:101910008360C26A097D22F47002491EC9B242EA9C
:101920000151C16230BD0000FFFEFFFCFDF7FFC0AA
:1019300070B5072609290AD9C568A1F10A0404EB84
:101940004404A640B543A3401D43C56007E00569B4
:1019500001EB4104A640B543A3401D4305611F238D
:10196000072A09D2446B521E02EB820293409C4329
:1019700091400C43446370BD0D2A09D2046BD21F01
:1019800002EB820293409C4391400C43046370BD80
:10199000C46A0D3A02EB820293409C4391400C438F
:1019A000C46270BD816841F0804181607047002150
:1019B0000160017141718160C160016101210175A6
:1019C000704700002DE9F047DFF88090DFF880A035
:1019D000002404EB44010AEB01110878012826D108
:1019E0000020087019F804C00B1D0246ACF1010874
:1019F00012E0ACF101000CE003EB800753F820602B
:101A000057F8045CAE4203DA43F8205047F8046C00
:101A1000401E9042F0DC521C4245EADB19F80420DB
:101A20005008D20709D001EB80008088C885641C6B
:101A300014F0FF04CDD0BDE8F08701EB800251F82F
:101A40002000526810444010F0E700001E560508C0
:101A50006C58012070B5104C104D114B002022889D
:101A600000EB400103EB011191F82C6001EB8606BD
:101A7000726091F82C20521CD2B281F82C202E5C7E
:101A8000964204D1002281F82C2001220A70401CC9
:101A900010F0FF00E3D070BDBC0000201E5605080A
:101AA0006C5801202DE9FF4100240220CDE90004FB
:101AB000C2010294234630A13248039413F076FA0F
:101AC0000325CDE900544FF40077029400233A46F1
:101AD0002DA12E48039413F069FACDE900547E003D
:101AE0000294002332462AA12D48039413F05EFA93
:101AF0000120CDE9000402940023324629A12B489D
:101B0000039413F053FA0526CDE9006402940023F0
:101B10003A4627A12A48039413F048FACDE9005425
:101B2000029400233A4627A12A48039413F03EFA70
:101B30000420CDE90004029400233A4626A12A4855
:101B4000039413F033FACDE9006402940023802259
:101B500026A12848039413F029FACDE900640294E1
:101B60000023802224A12648039413F01FFABDE825
:101B7000FF4112F0F9BD00004C6F77506F7765722E
:101B8000000000007941040869617000A5C20408E2
:101B90004C7769705F6170705F3130306D73000039
:101BA0005945040868747470730000007BBF040812
:101BB0005A5236304374726C5F356D73000000000A
:101BC000597304085A5236304374726C5F31306D69
:101BD00073000000397304084C7769705F6170709E
:101BE0005F356D730000000079450408466C697428
:101BF000657200007132040846656564446F6700D1
:101C00009D44050870B51B4CA0780C2829D801F01C
:101C1000D1FD1949A078194D51F8302001EBC000D1
:101C20005032A26040685038E06000202061607847
:101C3000D0B1284603F08CFEA5F5006003F088FEC5
:101C40000421102012F00BFE1021002012F0E7FDFD
:101C5000322012F01DFF0120E07001F0A5FDA079F7
:101C60006071FF20A07070BD054803F071FE28462A
:101C7000E4E70000C0000020CC540508EC0B002075
:101C8000EC03002070B50025521E0EE0AC1804EBEA
:101C9000D474641001EB84067668864202D9A4F1FC
:101CA000010202E005D204F101059542EEDD0020BB
:101CB00070BD1C70012070BD70B500200A4B0B4C2C
:101CC0000B4D0246C921414303EB8106728004EBB0
:101CD000810603F82120728004F821202A54401C38
:101CE000C0B20A28EED370BDCA18001032380010F6
:101CF000C0180010F8B50D4D06460024C92004FB9D
:101D000000F115F82100012809D105EB81016B468E
:101D1000488882083046FFF7B5FF012804D0641CCC
:101D2000E4B20A2CEAD30020F8BD000032380010DB
:101D30002DE9F041224D0026224F2E704FF47A6893
:101D40000124287801F040FB6870297817F83120C9
:101D5000824211D01C4A525C824207EBC10203D17D
:101D6000947007F831000CE0967007F83100567057
:101D7000D6701671D68017E007EBC1008078012875
:101D800012D107EBC1004346C288521C92B2C280F6
:101D90009A4200D3C380C288042A0CD0B2F5FA7FDD
:101DA0000BD09A4200D10471491CC8B22870022895
:101DB000C7D3BDE8F0814470F6E7C470F4E70000D3
:101DC00086030020A4560120DC550508FEE72DE916
:101DD000F74FADF5107D044600206F4601EB800201
:101DE0001368D2781BBA23F0FF03134347F820305F
:101DF000401C0F28F2DD102507EB85060F2156F851
:101E00000C0C403E03F066FBF269316851404840DB
:101E100003F01BFA02460721F06803F05BFB424027
:101E2000B06A424047F825206D1C432DE4DD0020B8
:101E300044A907EB800357F820201B695A4041F85A
:101E40002020401C3F28F4DD2068E27900BA20F011
:101E5000FF08E07848EA0008606800BA20F0FF0058
:101E600010438D90A068E27A00BA20F0FF00104382
:101E70008C90E068E27B00BA20F0FF0040EA020AA2
:101E80002069E27D00BA20F0FF05E07C054360692F
:101E900000BA20F0FF0010438E90A069E27E00BAE5
:101EA00020F0FF0040EA020BE069E27F00BA20F078
:101EB000FF0040EA020900260C21404603F00AFB1D
:101EC0004219304604F0FEF8314603F003FB10449B
:101ED000072103F0FFFA07460C21404603F0FAFA07
:101EE00080EA07018F91DDE98C213346404601F0FD
:101EF00013F944A9334651F8261042188F990AEB7A
:101F0000010010448F905A4628468E9901F0C2F97C
:101F10005DF82610DDF830A2421809EB07000244F4
:101F200009218D9803F0D6FACDE98C08DDE98E08F9
:101F3000D946132103F0CEFA834610468E9503F05E
:101F400077F9761C05463F2EB6DD4FEA18608DF80E
:101F500010024FEA18408DF811024FEA18208DF850
:101F600012028D988DF81382000E8DF814028D9850
:101F700084AB000C8DF815028D98000A8DF81602BE
:101F80008D988DF817028C98000E8DF818028C9899
:101F9000000C8DF819028C98000A8DF81A028C98A2
:101FA0008DF81B024FEA1A608DF81C024FEA1A40A6
:101FB0008DF81D024FEA1A208DF81E02280E8DF8AA
:101FC0002002280C8DF82102280A8DF822028E9812
:101FD0008DF81FA2000E8DF824028E988DF82352E2
:101FE000000C8DF825028E98000A8DF826028E9836
:101FF0008DF827024FEA1B608DF828024FEA1B403C
:102000008DF829024FEA1B208DF82A024FEA196049
:102010008DF82C024FEA19408DF82D024FEA192055
:102020008DF82E028DF82BB28DF82F920020195CBE
:10203000225C5140929A1154401C2028F7DB0DF588
:10204000137DBDE8F08F00002DE9F0413A4C0126E8
:102050000025E07B98B101286BD1A06B401CA063E8
:10206000B0F5167F5AD835480178012961D105703D
:1020700051223349334805F051FA80B13DE0002048
:1020800001F0B4F9012854D1002000F0A9F8022190
:10209000072003F085FEA563E6732BA139E05122EA
:1020A0002849002002F03EFB38B3254B254F002085
:1020B0001A18395C19543918401C91F810C082F86C
:1020C00010C091F820C082F820C091F830C082F88A
:1020D00030C091F84010C0B282F840101028E7D309
:1020E00097F85000144983F850003C3114480DF023
:1020F00017F90EF049FA03F09BFF0221062003F0C6
:102100004FFE16480560456085601548E57306700A
:1021100014A1BDE8F04118A005F016BAE57317A1A7
:1021200015A005F011FABDE8F0410221042003F0EA
:1021300037BEBDE8F08100002C0000100700001041
:102140000B5B0010BA5A0010BDF8C8EBC4B8BFA8AA
:10215000C9E8D6C3C4A3CABD00000000985B001044
:1021600008000010C4B8BFA8C9E8D6C3B3C9B9A64F
:102170002020A1CC0000000025730A00B5C8B4FDE2
:10218000C4B8BFA8C9E8D6C3B3ACCAB1A3ACCDCB61
:10219000B3F6C4B8BFA8C9E8D6C3C4A3CABD00007B
:1021A0000020064A014600EB8003401CC0B2D15417
:1021B0006428F8D30248017041707047E8000010AD
:1021C000000000100020054A0146C9234343401C7B
:1021D000C0B202F823100A28F7D37047CA180010BB
:1021E000024A002102EBC00041707047A456012052
:1021F00070B500210D4C0B46C1EBC10004EBC002D1
:1022000004F830300025C2E9025528461518401C54
:10221000C0B22B742028F9D3491CC9B282F83030DF
:102220006429E9D302480370437070BDE0020010D6
:102230000200001001490020C88470472C000010E3
:1022400001490020887470472C00001001490020CB
:10225000487570472C000010014900200875704730
:102260002C00001070B5094C094D2146284600F09D
:10227000FBF8012808D12146284600F027F8054838
:102280004068BDE87040004770BD00000080001845
:10229000586002404000002070B5094C094D2146AD
:1022A000284600F0E1F8012808D12146284600F030
:1022B0000DF805480068BDE87040004770BD00009B
:1022C000208000207060024040000020074A9042B9
:1022D00001D2074801E005481038064A8B0001EAA0
:1022E000020101D5C16070478160704710640240EF
:1022F000006002407D0F7D0F0029016802D041F08F
:10230000010101E021F00101016070472DE9F04376
:10231000016821F0010101600021016041608160DC
:10232000C1600161212141613C493C4A3D25103990
:10233000904202D18D60BDE8F083384A4FF4746654
:102340001832904201D18E60F5E7344A4FF4741789
:102350003032904201D18F60EDE7304A4FF0746C1B
:102360004832904202D1C1F808C0E4E72B4B2C4A16
:102370006033984201D1CA60DDE7284C294B78349C
:10238000A04201D1CB60D6E7DFF89080264C08F15F
:102390009008404501D1CC60CDE7DFF880804FF058
:1023A0003D5908F1A808404502D1C1F80C90C2E798
:1023B0001E49DFF878800839404501D10D60BAE741
:1023C0001A4D1835A84201D10E60B4E7174D3035CB
:1023D000A84201D10F60AEE7144D4835A84202D1A2
:1023E000C1F800C0A7E7114D10496035091FA84288
:1023F00001D10A609FE70D4A7832904201D10B600B
:1024000099E70A4A9032904201D10C6093E7074A5B
:10241000A83290428FD1C1F800908CE71060024042
:102420003D000020400F002000003D2010640240CD
:102430000029016802D041F4802101E021F48021CB
:1024400001607047002A026802D042F4002201E0D5
:1024500022F40022026001617047014600200968F1
:10246000C90700D00120704730B5104A00249042BF
:1024700001D20F4A01E00D4A103A0E4B194205D025
:102480001E2303EAD12503682B4002E0406900F0D7
:102490008003880001D5506800E01068064A1040AB
:1024A000084201D003B10124204630BD106402402F
:1024B000006002403C0F3C0F7D0F7D0F0B0607D5DF
:1024C000436912B143F0800301E023F080034361CC
:1024D000802908D0002A026801F01E0101D00A43B9
:1024E00000E08A430260704730B50368124ACC6846
:1024F00013400A682243D1E905452C432243CC69A5
:1025000022430C6A22434C6A22438C6A22434C6B5E
:1025100022438C6B22431A430260426922F0070374
:10252000D1E90B2422431A4342610A6942604A6896
:1025300082608968C16030BD3F801CF07047000038
:10254000F0B5012187B0084602F0C0FE012110203D
:1025500002F0F8FE022500248DF8064001268DF8D1
:1025600007602802234F8DF8055000908DF8045025
:102570006946384600F099FE680200908DF80450D4
:102580006946384600F091FE07220A21384600F0DD
:10259000C8FE07220921384600F0C3FE4FF4E1309F
:1025A0000290ADF810400C20134FADF80C40ADF880
:1025B0001200ADF80E40ADF8144002A9384604F000
:1025C000BBFB25208DF818008DF819508DF81A40A6
:1025D0008DF81B6006A802F089F9012240F225510E
:1025E000384604F090FB0121384604F05CFB07B04C
:1025F000F0BD0000000002400010014008B500F0EE
:1026000021F900F033FB3D208DF8000002208DF809
:10261000010000208DF8020001208DF803006846BB
:1026200002F064F90121002000F0F2FB400704D51C
:102630000248416841F01001416008BD08030020D4
:102640001A4A51680B681046002B80680DDB0B6836
:10265000DB050AD583685B1C83608368012B00D18E
:10266000016051684160012070470B68002B0DDB51
:102670000B689B050AD50B68DB0507D401600021B8
:102680004160012181605068C0680CE00B68002B3C
:102690000ADB0B689B0507D40B68DB0504D4836851
:1026A0005B1C8360C86850600020704710030020E6
:1026B00070B50121002000F0ABFB0B4C10F0040FB3
:1026C0004FF00105607806D0002803D107480BF0D1
:1026D0001AFA657070BD0028FCD0257003480BF015
:1026E00005FA0020607070BD08030020EC24002073
:1026F000014948617047000000900240044A0029E7
:10270000D16901D0014300E08143D16170470000ED
:102710000090024005490028886902D040F002007C
:1027200001E020F002008861704700000090024044
:10273000F0B5124F00234FF0004C44F2F45E561EE9
:10274000786013E000EB4314C4F800C0C3EBC3157A
:1027500005EB450501EB8505C4E901E5B34203D26C
:1027600004F12005E56000E0E0605B1C9342E9D3E2
:102770000349C8600348B860F0BD000010030020A2
:10278000009002404054012005490028886902D089
:1027900040F4005001E020F40050886170470000D0
:1027A00000900240F0B50F4C00234FF48017561EE6
:1027B000206011E000EB43142760C3EBC31505EB69
:1027C000450501EB8505A560B34203D204F1200560
:1027D000E56000E0E0605B1C9342EBD302490861D6
:1027E000F0BD0000100300200090024002680A4380
:1027F0000260704710B501214C06204602F072FDC0
:102800002046BDE81040002102F06CBD01B581B04A
:1028100001980090002801D0401EFAE70CBD00008E
:10282000074908B5886940F480108861886900907C
:102830004FF6FF70FFF7EAFF0098886108BD0000BF
:10284000009002402DE9FC410121452002F03EFDAF
:1028500001218D03284602F075FD012003F082FA64
:102860000420009003208DF8050002248DF8044018
:1028700000208DF806000120324E8DF807006946D1
:10288000304600F012FD0B220221304600F049FDD7
:102890002D4F69463846009400F007FD0B220121B8
:1028A000384600F03EFD69463046009400F0FDFCDD
:1028B0000B220121304600F034FD80200090694653
:1028C000304600F0F2FC0B220721304600F029FDD3
:1028D000102000906946384600F0E7FC0B220421E6
:1028E000384600F01EFD202000906946384600F072
:1028F000DCFC0B220521384600F013FDA002134C2E
:1029000000906946204600F0D0FC0B22114620467C
:1029100000F007FD681000906946204600F0C5FCF5
:102920000B220D21204600F0FCFC69462046009554
:1029300000F0BBFC0B220E21204600F0F2FCBDE8AB
:10294000FC81000000000240000802400018024024
:10295000034900200968C90700D001207047000022
:102960000090024030B5084B59680A68C2F30D4424
:102970009A68156812689268C9685960241F856052
:10298000C0E9004230BD00001003002010B501E096
:1029900001F0DCFDFFF754FE0028F9D14020FFF7DD
:1029A000A7FEBDE810404FF48030FFF7A1BE000045
:1029B0002DE9F04786B00025044601200095974E8A
:1029C000CDE9000530698A4620F01C0702A802F014
:1029D000D1FC93490398934A0144914202D247F0B3
:1029E000080716E09049421890498A4202D247F0FF
:1029F0000C070EE08E498F4A0144914209D38E495B
:102A000008448E49884202D247F0040701E047F0AB
:102A1000100737614FF400420021504600F092FA4F
:102A20004FF6FF774FF400694FF4804898B184481F
:102A3000FFF7ECFE206890B301980121401C019043
:102A4000504600F0E5F9400702D40198B842F3D3AC
:102A50000198B84201D100953CE04FF4805200212A
:102A60005046019500F06EFA00B9009501980121D9
:102A7000401C0190504600F0CBF9800602D401982A
:102A8000B842F3D30198B842E5D01F2150460195D2
:102A900000F0BEF9C10603D5C4F8209001E007E0BC
:102AA0002562400701D5656112E0C4F814800FE08B
:102AB000206A6169C00840EA510082B20021504694
:102AC00000F040FA00B900956FF07F40FFF79EFEDE
:102AD000009818B9C4F82090C4F814803168594897
:102AE0000140D4E901021043E26854F8103F1A4350
:102AF000104362681043A2681043E26810432269E1
:102B0000104354F8142F104362681043A268104316
:102B1000E268104322691043084330603168384648
:102B2000FFF774FE3160F4E905010843D4E90212AD
:102B3000114308432169084361690843A1690843B7
:102B4000E1690843706071683846FFF75FFE7160A5
:102B5000206AB060606AF060B0694FF64171084069
:102B6000D4E90B121143238D626B42EA03421143F5
:102B7000A26B1143E26B11430143B161B169384665
:102B8000FFF744FEB161D4E910010843F061F16937
:102B90003846FFF73BFEF1612B4988692B4A10400C
:102BA000D4E912231A43D4E914352B431A43A36DF5
:102BB0001A43E36D1A43236E1A43636E1A43A36EDE
:102BC0001A4302438A618D693846FFF71FFE8D6103
:102BD000D4E91B021043626F54F8783F1A43104344
:102BE000626840EA8200A268104340F40000086076
:102BF0000C683846FFF70AFE0C60086840F0800059
:102C000008600C683846FFF701FE0C600098012848
:102C100000D0002006B0BDE8F08700000080024030
:102C200000D3CEFEC0E1E40040F1E9FD40787D0133
:102C300000796CFC005A6202001F0AFA80F0FA0266
:102C4000FFFF0F000F8120FF00900240233FDEF8BE
:102C5000054B8A88184402640A78D1F8011042EAC8
:102C600001214164704700000080024010B501213D
:102C70004FF0606002F02AFBFFF7BCFD00F0F2F8B5
:102C8000FFF766FE0128FBD01A4800F015F9194835
:102C900001214FF4007240F81C1B002140F80C1B6E
:102CA000E0E80321920501618161C1614260016236
:102CB000520D40F8102CD20313118365C0E9131292
:102CC000016641660421C0E91B128903416789013D
:102CD00081674912C1674900C0F884100121064884
:102CE000FFF70CFD00210348FFF762FE034948602F
:102CF00010BD0000A4C10020400001000803002016
:102D000008B50021009109490028086802D040F068
:102D1000040001E020F004000860086800904FF60D
:102D2000FF70FFF773FD0098086008BD0080024047
:102D300008B50021009109490028086802D040F038
:102D4000080001E020F008000860086800904FF6D5
:102D5000FF70FFF75BFD0098086008BD008002402F
:102D6000F0B5294E002231680B68002B01DA0020F3
:102D7000F0BD40F2F454A04215D9B0FBF4F5B0FB1D
:102D8000F4F304FB150505B15B1C012B0BD0C3F15B
:102D90000107C7EBC71707EB470700EB87005D1E6E
:102DA000C0F30C0023E00A6842F040520A60C0F30E
:102DB0000C004860086840F000400860C96818E0EE
:102DC0000F6827F040570F601AB90F6847F0805717
:102DD0000F604C60AA4204D10F6847F000570F60A3
:102DE00048600F6847F000470F60C968521C9A425C
:102DF000E6D3064831604169490703D504214161A2
:102E0000002141600120F0BD10030020009002402D
:102E100018B500220092124A136903F01C044FF601
:102E2000FF7303EAC02020434FF4F86404EA8111E1
:102E3000014321F0020040F0010010610098401CA5
:102E400000901069C00702D000989842F6D300980D
:102E5000984201D1002018BD506980B218BD000011
:102E6000008002400248016841F0010101607047A2
:102E70000090024000B50120FFF75AFF0120FFF744
:102E80003FFFFFF7CDFC0120FFF77EFC01205DF83E
:102E900004EBFFF73FBC00B50020FFF775FC0020F6
:102EA000FFF738FC0020FFF72BFFFFF7B9FC0020ED
:102EB0005DF804EBFFF73CBF012101600021416098
:102EC00081604FF48042C160C0E90412D210816178
:102ED000C0E9071241628162C16212050163C0E963
:102EE0000D124022C0E90F122022C0E91121C16455
:102EF0000165416581658022C165C0E9181281665E
:102F0000C16601674167D2048167C0E91F12521090
:102F1000C0E921211311C0E92331C0F89410C0F891
:102F20009810C0F89C10C0E928125212C0F8A820CE
:102F30009201C0F8AC205212C0E92C21C0F8B810A0
:102F40007047000038B5124C00230093236962617A
:102F500003F01C054FF6FF7303EAC02028434FF42B
:102F6000F86505EA8111014341F0030020610098F2
:102F7000401C00902069C00702D000989842F6D308
:102F80000098984201D1002038BD012038BD0000D2
:102F9000008002402DE9FF4100250446039590F88A
:102FA0003100DFF8B480C0064AD52C4C206890B3BD
:102FB00000214FF480520846FFF7C4FF4FF6FF761A
:102FC00003990020491C03910121FFF721FF80068E
:102FD00002D40398B042F3D31F2100200395FFF7DA
:102FE00017FFC10603D54FF40061216200E025629E
:102FF000400701D5656102E04FF480406061184FE1
:103000003868226A61691143014339603046FFF72D
:10301000FDFB38683860FFF72DFF00950195012111
:10302000029588F8001002AB01AA69460D480AF023
:10303000FCFC0C480AF08CFD0B480570BDE8FF81D4
:10304000FFF729FF052188F80010204606F040FB15
:1030500004480AF001FDF1E718020020A4C1002095
:1030600000800240EC2400200803002010B504205A
:1030700000F010F8002806D002F03CFFBDE8104038
:10308000042000F001B810BD01490860704700003D
:10309000143C0140034A0146002012680A4200D055
:1030A00001207047143C014030B51A4A8379016809
:1030B00053B313688B431360111D0B680468A3435B
:1030C0000B60017911440B68046823430B60114BBA
:1030D000083319680468A14319601C1D216805683C
:1030E000A94321604179102905D011440A6800687C
:1030F00002430A6030BD19680268114319602168F3
:1031000000680143216030BD0079104402688A43A1
:10311000026030BD003C0140102B02DA48405040B4
:10312000704741EA0203184011400843704700000D
:1031300001490860704700000C3C024070B506462B
:10314000002529B1012927D0022928D04FF4407544
:1031500000F07EF809281ED1124C206820F440703F
:103160002060206828432060206820F0F80020605C
:10317000206846F0020108432060206840F4803057
:10318000206000F065F8216821F0020121602168CB
:1031900021F0F801216070BD4FF48075D8E74FF43D
:1031A0000075D5E7103C02400D4909200A68D2039A
:1031B00001D5012070470A68D20601D50620704764
:1031C0000A68D20501D5022070470A6812F0E00FA4
:1031D00001D00720704709688907FBD50820704790
:1031E0000C3C02400248016841F000410160704718
:1031F000103C024070B50D46064600F029F809283B
:1032000011D1094C206820F44070206020682060B3
:10321000206840F001002060357000F019F8216846
:1032200021F00101216070BD103C0240054800689A
:10323000002805DA034804490C380160034901609D
:1032400070470000103C024023016745AB89EFCD79
:1032500008B509208DF80000FFF7A6FF8DF80000E3
:103260009DF800000128F7D09DF8000008BD00007F
:10327000074C01F0F9FA03F0E3F803F027F9102105
:10328000606811F04EFC052011F0DEF8F1E7000057
:10329000D0030020102B02DA48405040704700EA6B
:1032A0000103824343EA02007047F0B50022012780
:1032B0004FF0030C0B6807FA02F52B40AB422CD100
:1032C000066853000CFA03F4A64306600E79D0F8A2
:1032D00000E09E4046EA0E0606600E79012E01D0FF
:1032E000022E12D18668A64386604E79D0F808E097
:1032F0009E4046EA0E0686604668AE4346604568D4
:103300008E799640B6B235434560C568A543C56021
:10331000CC799C40C3681C43C460521C102AC9D39A
:10332000F0BD4B07DB0E9A40C90810B500EB8100D9
:10333000016A0F249C40A1430162016A11430162AA
:1033400010BD0246002012690A4200D001207047D9
:103350004183704701837047034900EB400001EB54
:103360000010B0F92E0070476C5801200448C17855
:1033700011B98078FF2801D00120704700207047E4
:10338000C000002030B5084B084D0024597801EBEF
:1033900081025019491CD0F80100C9B2AC545970CF
:1033A000642900D15C7030BD00000010E8000010FE
:1033B00003480449407800EB8000085C7047000037
:1033C00000000010E800001001004FF0000005D0E0
:1033D000012906D1C9030348FFF7B3BF0121024801
:1033E000FAE770470018024000000240024901EB72
:1033F000C000407870470000A456012001004FF043
:10340000000005D0012907D108210448FFF799BF22
:103410004FF480510248F9E7704700000010024065
:1034200000000240024900EB4000085C70470000C9
:10343000C30300200548407818B90448203040787C
:1034400008B1002070470120704700005803002099
:1034500000B541698BB0A1F26C7105910169491EFB
:103460000491C16803918168083902914168019112
:10347000006800906846FCF737FF0BB000BD000005
:10348000044A002153185B784354491CC9B23B29B4
:10349000F8D37047B457012070B5104900200A795D
:1034A000012A19D1002201F1D9030A71D9781646EF
:1034B000C91CCDB2114604E05C1864786240491C16
:1034C000C9B2A942F8D3D14393F83C20C9B28A4289
:1034D00001D0002E00D0012070BD0000DB5601207D
:1034E000034890F84A0008B1002070470120704757
:1034F0001E570120F0B5124D124E6B78C3EBC3047A
:1035000006EBC402D2E90217C0E9021700215718DE
:1035100000EB010C491C3F7CC9B28CF810702029CB
:10352000F5D392F8301080F8301000215B1CD8B22F
:1035300006F834106870642800D16970F0BD00008E
:1035400002000010E0020010034804494078C0EB7C
:10355000C00011F83000704702000010E0020010B7
:103560000148407D704700002C0000100148C07BDE
:10357000704700002C0000100148007D70470000DB
:103580002C00001010B500231A4603E0845C634051
:10359000521C92B28A42F9D3D843C0B210BD000087
:1035A000024A52F82000086070470000AC24002056
:1035B0000149085C70470000D02400200148407891
:1035C00070470000380300200148807B70470000EE
:1035D0007C540120014840787047000040010020E1
:1035E000FEE70029818B02D041F4806101E021F4E3
:1035F00080618183704730B5828B00234FF2400495
:103600002240828302220284848B0A884FF48075D0
:10361000B2F5007F00D002B92B464A888D8889898F
:103620002A4319430A43224342F40061818330BD97
:103630007CB50121062001F049FE02208DF804002E
:103640008DF8050000208DF806008DF807004FF476
:1036500080501E4C009069462046FFF726FE4FF42E
:103660000051009169462046FFF71FFE4FF480414C
:10367000009169462046FFF718FE4FF40041009183
:1036800069462046FFF711FE4020114D0090694623
:103690002846FFF70AFE05220C212046FFF741FECF
:1036A00005220D212046FFF73CFE06220E21204672
:1036B000FFF737FE05220F212046FFF732FE0522D5
:1036C00006212846FFF72DFE7CBD000000040240C5
:1036D00000080240F0B502220023858B01244FF23E
:1036E0004006354085830284868B8D68022D3DD04F
:1036F0008A8802B10224294A13681B0203D5136881
:1037000023F400031360254A7C3213681268C3F364
:103710008813224FC2F302723F1F3D683F6805F0D5
:103720003F057F0201D51E4F00E01E4FB7FBF5F5A8
:103730005D43B5FBF2F2CB88B3F5007F2BD063017C
:10374000B2FBF3F202EB82028B685200B2FBF3F29F
:10375000521D92B20A23B2FBF3F202F00103D21A15
:103760004FF6FF74C2F34F0204EA0323941EFE2CAB
:1037700001D302220023CC881A43144304840A880C
:103780004B881A438B8889890B431A43324342F48E
:1037900000618183F0BD120AD4E7000008380240BE
:1037A00040787D010024F40001210148FEF7A4BD0A
:1037B0007060024000210148FEF79EBD706002402B
:1037C00010B500210448FEF797FD03480021BDE82D
:1037D00010401838FEF790BD706002402DE9FF419F
:1037E0000746002490460E46204601F027FE0120A1
:1037F00001F03EFE4FF4FA753B2001F005FE012872
:1038000002D0641CAC42F7D30121880301F082FD91
:103810000D4C204602F03CFA6015ADF80000ADF802
:103820000460ADF806000020ADF80C00ADF80270A1
:10383000CDF8088069462046FFF74CFF012120465D
:10384000FFF7CFFEBDE8FF81003800402DE9FF4FB4
:103850008346012191B098461646480501F036FD91
:10386000304D2846FEF752FD2846FEF7F6FD0028AB
:10387000FAD12D492846FEF729FD2C480024CDE930
:103880000040CDF808B04020CDE903060001CDE9A5
:1038900005404000079080000890401109904002C8
:1038A000CDE90A040C940D94694628460E94FEF75F
:1038B0001BFEDFF878A001260F274FF40029AAF19C
:1038C0000C0AB8F1010F20D04A4628461299FEF79B
:1038D000B9FD00212846FEF7ABFD01221021284644
:1038E000FEF7ECFD01220221504602F0C9F98DF8E5
:1038F0003C708DF83D408DF83E608DF83F600FA81C
:1039000000F0F4FF15B0BDE8F08F002259462846BC
:10391000FEF798FD4A4628461299FEF793FD0121CD
:10392000D8E70000706002403DF000A00C38004075
:103930001FB54FF40073ADF80030ADF80200ADF8DC
:1039400004100020074CADF80C00ADF806300292D0
:1039500069462046FFF74FFE01212046FFF741FE52
:103960001FBD00000034004070B504460D4645F20E
:10397000555000F02BF8204600F01CF8284600F0C7
:103980001FF800F00FF8BDE8704000F001B800002B
:1039900002494CF6CC4008607047000000300040FF
:1039A000AFF3008002494AF6AA2008607047000081
:1039B000003000400149486070470000003000407E
:1039C00001498860704700000030004001490860EC
:1039D0007047000000300040F0B50F4C00230F4D41
:1039E0000F4E2370194601EB410005EB0012002039
:1039F000137002EB8007401CC0B27B600A28F8D32A
:103A000082F82C3036F81100491CD08511F0FF01E6
:103A1000E9D06370F0BD0000C10300206C580120A4
:103A20001C56050870B5FFF7CBFEFFF701FE1549E0
:103A3000154D13480860687805F1080400EB400054
:103A400004EB800134F820008A68898880B289B24A
:103A5000FFF7C4FE687800EB400004EB800134F807
:103A600020008A68898880B289B2FFF761FFBDE8CB
:103A70007040064901239A02A1F50060FFF7E6BEF7
:103A8000C548040840000020D4000020EC0B0020B2
:103A9000FEF786BB10B500200A4C0B4B0246215C9A
:103AA00069B1002103F8301003EBC001401C4A70DB
:103AB000CA700A71C0B2CA800228F0D310BD0121B9
:103AC000F0E70000DC550508A45601200020064B55
:103AD000024600EB4001401C5A541944C0B24A70DF
:103AE0008A700228F5D37047C30300200149F420EF
:103AF00008707047E9030020FEF77ABB2DE9F04714
:103B0000534C524D0026606800F0CAFD0746512212
:103B10005049002000F0D8FD51214E48FFF732FDFA
:103B2000B84229D14CA003F00FFD002002F048F963
:103B3000484B534F00201A18195C3954391892F821
:103B400010C081F810C092F820C081F820C092F80F
:103B500030C081F830C0401C92F84020C0B281F8DB
:103B600040201028E7D393F8500087F850004549CB
:103B700043480BF0D5FB02E043A003F0E5FCA0694D
:103B800000F08EFD04460C224749012000F09CFD08
:103B90000C214548FFF7F6FCDFF81091A04217D141
:103BA000414F4FF0010842A144A003F0CDFC002496
:103BB00043A0395D03F0C8FC385DFF2801D04FF009
:103BC0000008641CE4B20C2CF2D3B8F1000F19D039
:103BD00008213CA002F054F94A461078012806D08A
:103BE000681E46F1FF3105460E460843F5D11078B0
:103BF000012820D036A003F0A7FCBDE8F0473B48E1
:103C000001F0C0BE3AA003F09FFC274A414B0020C0
:103C100003EB0004115C092901D8303100E0373191
:103C2000401CC0B284F834100C28F1D3012189F86B
:103C30000010BDE8F08738A003F086FCBDE8F0472F
:103C40000C221949012000F06DBD0000FFFF1F008C
:103C5000E0550508BA5A00100AA1BE33A1BF666C30
:103C6000617368B4E6B4A2B5C4C4B8BFA8D0C5CF68
:103C7000A2CAFDBEDDD3D0D0A720A1CC0D0A000082
:103C80000B5B001068000010666C617368B4E6B4EA
:103C9000A2B5C4C4B8BFA8D0C5CFA2CAFDBEDDCEF0
:103CA000DED0A720580D0A00C35601208C03002047
:103CB0006D6163B5D8D6B7A3BA00000025730A00BA
:103CC0002578200041542B414444523F000000001D
:103CD000BBF1C8A1C0B6D1C06D6163B5D8D6B7CAB3
:103CE000A7B0DC2020580D0A00000000A45B0010E3
:103CF0000AA1BE36A1BF666C617368B4E6B4A2B512
:103D0000C46D6163B5D8D6B7D3D0D0A72020A1CCDD
:103D10000D0A000028240020BBF1C8A1C0B6D1C004
:103D20006D6163B5D8D6B7B3C9B9A60D0A00000056
:103D30007047000030B50A490020024601F1120325
:103D4000012401F109050A5418542C54401CC0B236
:103D50000928F8D3034840F63C714180027030BD19
:103D6000D0240020F0010020064948F6F860064AF9
:103D700088600020C860107010735073086108706C
:103D8000907370471C0300207C54012010B500285C
:103D90000FD000216FF02F0405E001EB810104EB4F
:103DA00041011144401C0278A2F13003092BF4D9DF
:103DB000084610BD2DE9F05F984615460E460446AC
:103DC00004F0B0F98246062D45D2DFE805F0030C79
:103DD000354585AA9FED620B63A1504604F02AF990
:103DE000224662A190E0224662A1504604F03AF9D0
:103DF00014F8280FFCF7FBFE41EC100B5FA15046B6
:103E000004F018F9D4E90201FCF7FEFE41EC100BB6
:103E10005CA1504604F00EF9A069FCF7E8FE41EC05
:103E2000100B5BA1504604F005F9208CFCF7DFFE77
:103E300041EC100B58A10BE022464EA1504604F075
:103E400011F994F82800FCF7D2FE41EC100B54A1B4
:103E5000504604F0EFF85AE0224646A1504604F0DE
:103E600001F9514A51A1504604F0FCF804F012F94E
:103E700083465A4650A1504604F0D2F8002526E069
:103E800004F050F981464946584604F0C7F8C5EB9E
:103E9000C50004EBC00797F86000FCF7A8FE41ECF2
:103EA000100B46A1484604F0C5F807F1400246A1B0
:103EB000484604F0D7F8D7E90E01FCF7A5FE41EC1F
:103EC000100B44A1484604F0B5F86D1CADB294F84F
:103ED0002800A842D4D81AE0224641A1504604F056
:103EE000C1F804F1210240A1504604F0BBF894F857
:103EF0003300FCF77CFE41EC100B3CA1504604F073
:103F000099F804F134023BA1504604F0ABF8504656
:103F100004F0E8F904001ED0FCF76AFC30800020B1
:103F20000EE09FED370B10A1504604F083F894ED9E
:103F3000060B35A18CE7225C08F80020401C80B2FB
:103F400031888142F7D80A2208F80020401C3080CE
:103F5000204603F021FB5046BDE8F05F04F006B9AF
:103F6000000000000000F03F74000000616C696117
:103F700073000000746F6B656E00000074797065EB
:103F80000000000074696D655374616D700000007D
:103F90007061676500000000706167654E756D00B7
:103FA00073746174650000002256050864657669C3
:103FB00063655379730000006C6F67006F70656E06
:103FC00054797065000000006F70656E496E666F11
:103FD000000000006F70656E54696D6500000000A0
:103FE000646F6F72496400006D61630069735769A3
:103FF00066690000626C7565746F6F74680000001C
:1040000000000000000014C06D69640070B500235A
:10401000302611E0CC5C06EB141504F00F043034AC
:10402000392D00D9ED1D392C00D9E41D00F81350AD
:1040300000EB43055B1C6C709342EBDB002100F846
:10404000121070BDF0B585B00121552001F03EF988
:104050000121880301F076F90024224E01258DF814
:10406000044000958DF8074069463046FFF71DF97A
:10407000280300908DF8075069463046FFF715F980
:10408000042700978DF8074069461748FFF70DF998
:10409000E803009069461548FFF707F908266946C6
:1040A00013480096FFF701F90221084601F060FE6F
:1040B0008DF80C400C208DF80D0002978DF80E50F5
:1040C00002A8FEF7F1FF8DF8106002208DF81100B4
:1040D0008DF812408DF8135004A800F007FC05B0CD
:1040E000F0BD00000000024000080240001802403D
:1040F000001002402DE9FC470121222001F0E6F8E2
:1041000001248DF8044000208DF806008DF807404A
:10411000DFF8588040258DF8050000956946404637
:10412000FFF7C3F88026694640460096FFF7BDF8C2
:104130002702694640460097FFF7B7F8DFF830904E
:104140004FF0200869464846CDF80080FFF7ADF8EB
:10415000694608480094FFF7A8F804481A3005801B
:1041600006800780A9F81880BDE8FC87001402408B
:104170000000024000040240054C02F0A9F9802131
:10418000606810F0CEFC142010F05EF9F5E7000036
:10419000D003002038B52E4D2878002401281FD0E8
:1041A000022854D12B4948686860002829D0032090
:1041B0002870084605F08CFA27A003F0C5F9686856
:1041C000010E0091C1B2C0F30743C0F307222FA034
:1041D00003F0BAF9FF231A46194631A0009434E0DF
:1041E000022028701B4805F019FA33A06C6003F018
:1041F000ABF937A003F0A8F9BDE838403AA003F0C6
:10420000A3B9486A407B042821D9042028701148AA
:1042100005F05EFA3AA003F097F93FA003F094F995
:104220000620002300901A460A2141A003F08CF9D1
:10423000FF231A46194643A0009403F085F9012094
:10424000002300901A460A2144A003F07DF938BDEE
:1042500018020020EC2400200AA1BE37A1BF20498B
:104260005020616464726573732061737369676E53
:104270006564206279206120444843502073657250
:104280007665722020A1CC0A000000000A49503A4D
:104290002025642E25642E25642E25640A00000046
:1042A0000A4E45544D41534B3A2025642E25642E29
:1042B00025642E25640A00000A20202020204C6F4F
:1042C0006F6B696E6720666F72202020200A0000E5
:1042D0002020202020444843502073657276657268
:1042E000202020200A0000002020202020706C6563
:1042F00061736520776169742E2E2E200A000000FC
:104300000A20202020444843502074696D656F7551
:1043100074202020200A00002020537461746963F7
:1043200020495020616464726573732020200A0064
:1043300049503A2025642E25642E25642E25640AD2
:10434000000000004E45544D41534B3A2025642E49
:1043500025642E25642E25640A00000047617465DB
:104360007761793A2025642E25642E25642E2564F4
:104370000A00000010B586B008F032FF09F032F8EC
:104380000020039004901A4A1A4905908DE807000E
:1043900005AB04AA03A9184809F020FB164809F048
:1043A00055FB16480068164C1128134815D009F023
:1043B00053FB0520207013A003F0C6F817A003F0EC
:1043C000C3F81C490C4809F08DFB08F077FE00216A
:1043D00008460FF04DFC06B010BD10F8311F41F03B
:1043E00010010170044809F0B3FB01202070E8E7D8
:1043F000C5A9040855AA0408EC2400200C030020D9
:10440000180200200A20204E6574776F726B2043DB
:1044100061626C6520697320200A00002020202042
:104420006E6F7420636F6E6E656374656420202008
:104430000A000000952F040813B5424CDDE9002066
:10444000D4E90213511A60EB0300FA3970F100004D
:1044500005D3DDE90001C4E902010FF0BBF9DDE994
:104460000021D4E90403121A61EB030141F2883000
:10447000101A71F1000005D3DDE90001C4E904015F
:1044800006F034FADDE90010D4E90623891A60EB5E
:1044900003004FF47A72891A70F1000006D3DDE947
:1044A0000001C4E906010020FEF702F9DDE9001071
:1044B000D4E90823891A60EB03004FF4FA72891AD1
:1044C00070F1000015D3DDE90001C4E9080104F032
:1044D00043FC207803280CD02078042809D02078C9
:1044E000052806D01848016881F040010160FFF7F7
:1044F00051FEDDE90021D4E90A03101A61EB030142
:104500004EF66022801A71F1000005D3DDE900014A
:10451000C4E90A0104F080FADDE90001D4E90C23C2
:10452000801A61EB03014FF47A72801A71F1000076
:1045300007D3DDE90001C4E90C01BDE81C4005F02A
:1045400029BC1CBD1802002014140240014806F0CA
:1045500095BA0000EC240020064C0BF03FFF02F05F
:104560001BF90421606810F0DCFA64200FF06CFF86
:10457000F3E70000D00300200A4C02F0ABF802F091
:10458000BDF8D4E90201401D41F10001C4E9020176
:10459000FFF752FF0221606810F0C3FA05200FF008
:1045A00053FFEAE7D003002010B56FF07F40401EB4
:1045B000FDD24FF4407000F0CBF9FFF79BFDFDF703
:1045C000BFFF02F02BFA02F09FFA02F0FBFA01F0B3
:1045D000A1FAFFF737FD204920A002F0B5FF00F057
:1045E00091FF01F079FD10F032FA012802D11FA0ED
:1045F00002F0AAFFFFF716FA00F056F8FFF77EFA6E
:10460000FFF748FAFFF762FAFDF756FBFFF740FAAB
:10461000FFF772FAFFF7E0F9FFF768FAFDF7EEFF30
:10462000FFF7A8FE0BF016FC07F01EF9FFF780FB62
:10463000FFF780FB0CF0D4FC0BF0A6FFFFF794FB18
:104640001148402101808021018081150180BDE851
:1046500010400EA002F078BF225605080AC8EDBC33
:10466000FEB0E6B1BEA3BA25730A00000AA1BE32AD
:10467000A1BF776D38393738B3F5CABCBBAFCDEAC7
:10468000B3C920A1CC0A00001A1402400A616C6C64
:10469000B3F5CABCBBAFCDEAB3C9A3A10A00000001
:1046A00072B6007862B67047064A10B50020D31C77
:1046B0000146941D115419542154401CC0B20328C2
:1046C000F8D310BD950300202DE9F0410E461546A4
:1046D0000146134A01EB8101114B002012F8212001
:1046E000044603EB810712B1012A16D112E0B86823
:1046F00072B604E010F8011B3155641CA4B2AC4240
:10470000F8D362B608E0B8682044FFF7C9FF305517
:10471000641CA4B2AC42F6D30120BDE8F0810000D5
:10472000E055050810B501460A4C01EB8103002055
:1047300014F82330012443B1012B05D10648445419
:104740000C3020F81120012010BD0348001F047018
:10475000F9E70000E0550508980300202DE9F0472F
:10476000002772B6FEF762FDDFF8B090002606EB78
:10477000860109EB81040025D4F80C800AE0A068CA
:1047800018F805102844FEF735FD18F805004740D5
:104790006D1CADB2207CA842F1D8F843204FC5B2C1
:1047A00037F81600010A6068401CFEF723FD6068B8
:1047B00017F81610801CFEF71DFD29466068FEF7ED
:1047C00019FDD4E902120020237C09E0175C91F85E
:1047D00000C0674501D013A109E0401C80B2491C0C
:1047E0008342F3D860680078A84209D012A117A0CC
:1047F00002F0AAFE62B6FEF7F5FC0020BDE8F087E5
:10480000761C0027F6B2032EB1D311A10FA002F03F
:104810009BFE62B6FEF7E6FC0120EFE7E0550508D7
:10482000A40300200D0ACAFDBEDDD0B4C8EBB3F668
:10483000B4ED0D0A000000000D0AD0A3D1E9BACDF5
:10484000D0B4C8EBB3F6B4ED0D0A000025730A002E
:104850000D0AD0B4C6ACC9CF666C617368CDEAB33B
:10486000C90D0A00FEE7000070B5124C207870B147
:1048700001281BD1104801786078814217D10020AF
:104880006070FDF7E7F8BDE87040FDF79BB80B4A94
:104890000B490020138800EB400501EB0515401C77
:1048A000EB8510F0FF00F5D00120207070BD401C9A
:1048B000607070BDC10300201F560508BC000020B9
:1048C0006C5801200648006F4FF0010102030548B3
:1048D00002D50022427000E0417001707047000074
:1048E00000600240C00000207047000030B50F2378
:1048F000C27801780125FAB1144A126801F1E02169
:1049000002F4E062C2F5E062C2F30722C2F10404DD
:10491000D3404278A24084781C401443220181F89D
:104920000024007800F01F018D404009800000F154
:10493000E020C0F8005130BD01F01F00854048095B
:10494000800000F1E020C0F8805130BD0CED00E0A7
:104950000249084302490860704700000000FA0558
:104960000CED00E02DE9F04196B0202103A8FBF703
:1049700000FF0020674DCDE91400A87C4FF001082E
:10498000002430B985F81280082163A001F078FA7C
:10499000EC84FEF719FE634E50B93078012808D137
:1049A000614962A002F0D0FD00215F480FF002FAD9
:1049B0003470644F3878012850D1E87800284DD100
:1049C00085F80380EC823C70287930B15EA161A04B
:1049D00002F0BAFD022103203EE0A87901283DD073
:1049E0000BA800F0CFFF0BAB93E807000092CDE9D6
:1049F0000110DDE90F2158A00E9B02F0A5FD0BA8C8
:104A0000FEF726FD5C4968630B78424902223C317F
:104A10000AF09EFEE87401280ED058A14DA002F0C5
:104A200093FD31785AA002F08FFD3F495DA002F05E
:104A30008BFD012109200FE05EA146A002F084FD5C
:104A40006049A1F8008085F8048085F8058085F824
:104A500007806C830221002001F0A2F95A4E3078C1
:104A6000012824D1E879012821D13470EC7157490B
:104A700057A002F069FD14A800F0D0FD2121534B8E
:104A8000002003AA13F800C0ACEB010C02F800C030
:104A9000891E401C80B2C9B20B28F3D3114651A025
:104AA00002F052FD062203A914A802F01DFCE878CA
:104AB000012813D0EC82A87C01281AD0EC846879F4
:104AC000012802D0A879012805D1688CFA281DD3C5
:104AD0006C71AC716C8416B0BDE8F081E88A401C42
:104AE00080B2E882AA28E6D3EC823C70EC70347085
:104AF000E1E7E88C401C80B2E884C828DFD33F4857
:104B0000EC84AC7404703E480470D8E7401C6884A0
:104B1000E1E700002C00001041542B444953413F71
:104B2000000000008A030020B4560120C0B6D1C0A6
